:03000000020050AB
:030023000200CC0C
:1000500075985053877F75A890758920758DF378B2
:10006000009000D475907F11839000D87590BF11D7
:10007000839000DC7590DF11839000E07590EF11A4
:10008000830161780030900D08309111083092158D
:10009000083093192211C32090E90200B211C32045
:1000A00091E10200B211C32092D90200B211C32023
:1000B00093D13090FD3091FD3092FD3093FDE89367
:1000C000F599227EAF7F0ADFFEDEFA22309902C266
:1000D00099C298323034384331353944323641454B
:0400E000333742462A
:00000001FF
