:03000000020050AB
:10005000900400780079007A0075900475803875F6
:10006000900011F475900475800E75900011F47570
:10007000900475800675900011F411CCE89375908A
:1000800005F58075900011E40811F4B811EE759033
:10009000047580C075900011E4E893759005F580B3
:1000A00075900011E40811F4B821EE11D8E89375A9
:1000B0009005F58075900011E411F411D808E893CB
:1000C000759005F58075900011E480FE75900475BB
:1000D000800175900011E422759004758018759068
:1000E0000011E4227580FF759006E580759002543A
:0D00F0008070F4227BFF7CFFDCFEDBFA2237
:100400004D6963726F636F6D707574657220697387
:10041000207665727920696E746572657374696E91
:0304200067212130
:00000001FF
