:03000000020050AB
:1000500090040078007A00759004758038759000DF
:1000600011BF75900475800E75900011BF759004D6
:1000700075800675900011BF11A3E893F97590057E
:10008000898075900011AF0811BFB80FED0A780094
:100090009004107590047580C075900011AFBA027D
:1000A000D980FE75900475800175900011AF22759E
:1000B00080FF759006E580759002548070F4227B75
:0800C000FF7CFFDCFEDBFA22ED
:1004000048656C6C6F212120202020202020202096
:1004100049443A30323130373439202020202020EE
:00000001FF
