:02000000804E30
:1000500075340079D07C007D0075300075310075F5
:1000600032007533001169016590050AED930D4466
:100070000FF5A07A1F7BFF85A034DBFBDAF77C004D
:10008000E534540FB40F0A7CFF11A0BD03DB7D00E3
:1000900022900500EC930CB534F71C7D0011A022D2
:1000A000BCFF030200B18531308532318533328C9B
:1000B00033E53044E0F59011D0E53144D0F59011AE
:1000C000D0E53244B0F59011D0E5334470F590227C
:0900D0007A027BFFDBFEDAFA2262
:0D0500007EBEDE7DBDDD7BBBDB77D0B07045
:00000001FF
