:02000000804E30
:1000500079007535007534007C007D0075300075C1
:10006000310075320075330090050AED930D440F91
:10007000F5A07A1F7BFF85A034DBFBDAF77C00E577
:1000800034B5350302008D540FB40F14097CFF11F1
:10009000B5BD03D4B9030375350079007D0001684F
:1000A000900500EC930CB534F71C7D0011B5853438
:1000B0003579000168BCFF030200C6853130853206
:1000C000318533328C33E53044E0F59011E5E5318C
:1000D00044D0F59011E5E53244B0F59011E5E533F3
:0E00E0004470F590227A027BFFDBFEDAFA22F2
:0D0500007EBEDE7DBDDD7BBBDB77D0B07045
:00000001FF
