:03000000020050AB
:03000B000200AF41
:03001B000200BA26
:1000500075A88A7589117E009000D8EE93FB0EEE8C
:1000600093FC0E75907F30900E7590BF3090157593
:1000700090DF30901A016311A62090E77F0CD28D9B
:10008000D28F016311A62090DAC28EC28C01631157
:10009000A62090CF7F0CC28EC28C7E00EE93FB0E0A
:1000A000EE93FC0E016378AF790AD9FED8FA22B23A
:1000B000A0C28C8B8C8C8AD28C32C28EDF11EE93D4
:1000C000FB0EEE93FC0EBE18027E027F0CD28C75E6
:1000D0008BB0758D3CD28E32FB04FB90FC0CFC4443
:1000E000FCACFD09FD34FD83FDC8FE0BFE22FE566F
:00000001FF
