:03000000020050AB
:03000B000200AF41
:03001B000200BA26
:1000500075A88A7589117E009000D8EE93FB0EEE8C
:1000600093FC0E75907F30900E7590BF3090157593
:1000700090DF30901A016311A62090E77F06D28DA1
:10008000D28F016311A62090DAC28EC28C01631157
:10009000A62090CF7F06C28EC28C7E00EE93FB0E10
:1000A000EE93FC0E016378AF790AD9FED8FA22B23A
:1000B000A0C28C8B8C8C8AD28C32C28EDF11EE93D4
:1000C000FB0EEE93FC0EBE7C027E027F06D28C7588
:1000D0008BB0758D3CD28E32FD09FD09FD5CFD8330
:1000E000FD83FE85FE85FE56FE56FE56FE56FE221A
:1000F000FE0BFE22FE56FE56FD83FD83FD83FE228F
:10010000FE0BFE0BFE0BFE0BFE22FE0BFDC8FD835D
:10011000FD83FE0BFE56FE56FE56FE56FD83FD8306
:10012000FD83FD83FE0BFE56FE56FE56FE56FCACCE
:10013000FE22FE22FE0BFDC8FDC8FDC8FD83FDC8E2
:10014000FDC8FDC8FDC8FD83FD83FD5CFD83FD8307
:04015000FD83FD83AB
:00000001FF
