:03000000020050AB
:03000B000201E00F
:03001B000201EBF4
:1000500075A88A7589117F14D2B975907F30902D5B
:1000600030912D30922D7590BF30902A30912A30EA
:10007000922A7590DF309027309127309227759023
:10008000EF30902430912430922402005A0200B1C3
:100090000200C90200E10200F90201110201290275
:1000A00001410201590201710201890201A102010B
:1000B000B91201D720900F9001FB1201CE7F14D20C
:1000C0008DD28E02005A0200601201D720910F904B
:1000D00002031201CE7F14D28DD28F02005A020089
:1000E000631201D720920F90020B1201CE7F14D21F
:1000F0008DD28F02005A0200661201D720900F9015
:1001000001FD1201CE7F14D28DD28F02005A02005F
:100110006C1201D720910F9002051201CE7F14D2EC
:100120008DD28F02005A02006F1201D720920F90D9
:10013000020D1201CE7F14D28DD28F02005A02001E
:10014000721201D720900F9001FF1201CE7F14D2BE
:100150008DD28F02005A0200781201D720910F90A1
:1001600002071201CE7F14D28DD28F02005A0200F4
:100170007B1201D720920F90020F1201CE7F14D272
:100180008DD28F02005A02007E1201D720900F906C
:1001900002011201CE7F14D28DD28F02005A0200CA
:1001A000841201D720910F9002091201CE7F14D240
:1001B0008DD28F02005A0200871201D720920C9034
:1001C00002111201CE7F14D28DD28F02005A740018
:1001D00093FB740193FC2278AF790AD9FED8FA22F6
:1001E000B2A0C28C8B8C8C8AD28C32C28EDF03C2BE
:1001F0008C32758BB0758D3CD28E32FB04FB90FC3B
:100200000CFC44FCACFD09FD34FD83FDC8FE0BFE77
:0302100022FE5675
:00000001FF
